{
  "_format": "hh-sol-artifact-1",
  "contractName": "Bootcamp",
  "sourceName": "contracts/Bootcamp.sol",
  "abi": [
    {
      "inputs": [
        {
          "internalType": "address",
          "name": "_courseImplementationAddress",
          "type": "address"
        },
        {
          "internalType": "string",
          "name": "_cid",
          "type": "string"
        }
      ],
      "stateMutability": "nonpayable",
      "type": "constructor"
    },
    {
      "anonymous": false,
      "inputs": [
        {
          "indexed": false,
          "internalType": "address",
          "name": "courseAddress",
          "type": "address"
        },
        {
          "indexed": false,
          "internalType": "string",
          "name": "courseCID",
          "type": "string"
        }
      ],
      "name": "CourseCreated",
      "type": "event"
    },
    {
      "anonymous": false,
      "inputs": [
        {
          "indexed": true,
          "internalType": "address",
          "name": "previousOwner",
          "type": "address"
        },
        {
          "indexed": true,
          "internalType": "address",
          "name": "newOwner",
          "type": "address"
        }
      ],
      "name": "OwnershipTransferred",
      "type": "event"
    },
    {
      "inputs": [],
      "name": "cid",
      "outputs": [
        {
          "internalType": "string",
          "name": "",
          "type": "string"
        }
      ],
      "stateMutability": "view",
      "type": "function"
    },
    {
      "inputs": [
        {
          "internalType": "uint256",
          "name": "",
          "type": "uint256"
        }
      ],
      "name": "courses",
      "outputs": [
        {
          "internalType": "address",
          "name": "",
          "type": "address"
        }
      ],
      "stateMutability": "view",
      "type": "function"
    },
    {
      "inputs": [
        {
          "internalType": "string",
          "name": "_courseCID",
          "type": "string"
        }
      ],
      "name": "createCourse",
      "outputs": [
        {
          "internalType": "address",
          "name": "",
          "type": "address"
        }
      ],
      "stateMutability": "nonpayable",
      "type": "function"
    },
    {
      "inputs": [],
      "name": "getCourses",
      "outputs": [
        {
          "internalType": "address[]",
          "name": "",
          "type": "address[]"
        }
      ],
      "stateMutability": "view",
      "type": "function"
    },
    {
      "inputs": [],
      "name": "getImplementationAddress",
      "outputs": [
        {
          "internalType": "address",
          "name": "",
          "type": "address"
        }
      ],
      "stateMutability": "view",
      "type": "function"
    },
    {
      "inputs": [],
      "name": "owner",
      "outputs": [
        {
          "internalType": "address",
          "name": "",
          "type": "address"
        }
      ],
      "stateMutability": "view",
      "type": "function"
    },
    {
      "inputs": [],
      "name": "renounceOwnership",
      "outputs": [],
      "stateMutability": "nonpayable",
      "type": "function"
    },
    {
      "inputs": [
        {
          "internalType": "address",
          "name": "newOwner",
          "type": "address"
        }
      ],
      "name": "transferOwnership",
      "outputs": [],
      "stateMutability": "nonpayable",
      "type": "function"
    }
  ],
  "bytecode": "0x60a06040523480156200001157600080fd5b5060405162000b4f38038062000b4f83398101604081905262000034916200016f565b620000486200004262000075565b62000079565b80516200005d906001906020840190620000c9565b505060601b6001600160601b031916608052620002b4565b3390565b600080546001600160a01b038381166001600160a01b0319831681178455604051919092169283917f8be0079c531659141344cd1fd0a4f28419497f9722a3daafe3b4186f6b6457e09190a35050565b828054620000d79062000261565b90600052602060002090601f016020900481019282620000fb576000855562000146565b82601f106200011657805160ff191683800117855562000146565b8280016001018555821562000146579182015b828111156200014657825182559160200191906001019062000129565b506200015492915062000158565b5090565b5b8082111562000154576000815560010162000159565b6000806040838503121562000182578182fd5b82516001600160a01b038116811462000199578283fd5b602084810151919350906001600160401b0380821115620001b8578384fd5b818601915086601f830112620001cc578384fd5b815181811115620001e157620001e16200029e565b604051601f8201601f19168101850183811182821017156200020757620002076200029e565b60405281815283820185018910156200021e578586fd5b8592505b8183101562000241578383018501518184018601529184019162000222565b818311156200025257858583830101525b80955050505050509250929050565b6002810460018216806200027657607f821691505b602082108114156200029857634e487b7160e01b600052602260045260246000fd5b50919050565b634e487b7160e01b600052604160045260246000fd5b60805160601c610875620002da6000396000818161011201526101d001526108756000f3fe608060405234801561001057600080fd5b50600436106100785760003560e01c80630cbcae701461007d578063715018a61461009b5780638a38ab2c146100a55780638da5cb5b146100b857806396f979d2146100c0578063aa3ec0a9146100d3578063cc126479146100e8578063f2fde38b146100fd575b600080fd5b610085610110565b6040516100929190610679565b60405180910390f35b6100a3610134565b005b6100856100b3366004610575565b610188565b6100856102ea565b6100856100ce366004610616565b6102f9565b6100db610323565b6040516100929190610706565b6100f06103b1565b60405161009291906106b9565b6100a361010b366004610547565b610413565b7f000000000000000000000000000000000000000000000000000000000000000090565b61013c610484565b6001600160a01b031661014d6102ea565b6001600160a01b03161461017c5760405162461bcd60e51b8152600401610173906107b9565b60405180910390fd5b6101866000610488565b565b6000610192610484565b6001600160a01b03166101a36102ea565b6001600160a01b0316146101c95760405162461bcd60e51b8152600401610173906107b9565b60006101f47f00000000000000000000000000000000000000000000000000000000000000006104d8565b9050806001600160a01b0316637ab4339d8461020e6102ea565b6040518363ffffffff1660e01b815260040161022b929190610719565b600060405180830381600087803b15801561024557600080fd5b505af1158015610259573d6000803e3d6000fd5b5050600280546001810182556000919091527f405787fa12a823e0f2b7631cc41b3ba8828b3321ca811111fa75cd3aa3bb5ace0180546001600160a01b0319166001600160a01b03851617905550506040517f77a171ace0affbec12f6ed1485b149ca5f62557b99ff875d266abf44ac8f2be5906102da908390869061068d565b60405180910390a190505b919050565b6000546001600160a01b031690565b6002818154811061030957600080fd5b6000918252602090912001546001600160a01b0316905081565b60018054610330906107ee565b80601f016020809104026020016040519081016040528092919081815260200182805461035c906107ee565b80156103a95780601f1061037e576101008083540402835291602001916103a9565b820191906000526020600020905b81548152906001019060200180831161038c57829003601f168201915b505050505081565b6060600280548060200260200160405190810160405280929190818152602001828054801561040957602002820191906000526020600020905b81546001600160a01b031681526001909101906020018083116103eb575b5050505050905090565b61041b610484565b6001600160a01b031661042c6102ea565b6001600160a01b0316146104525760405162461bcd60e51b8152600401610173906107b9565b6001600160a01b0381166104785760405162461bcd60e51b815260040161017390610743565b61048181610488565b50565b3390565b600080546001600160a01b038381166001600160a01b0319831681178455604051919092169283917f8be0079c531659141344cd1fd0a4f28419497f9722a3daafe3b4186f6b6457e09190a35050565b6000604051733d602d80600a3d3981f3363d3d373d3d3d363d7360601b81528260601b60148201526e5af43d82803e903d91602b57fd5bf360881b60288201526037816000f09150506001600160a01b0381166102e55760405162461bcd60e51b815260040161017390610789565b600060208284031215610558578081fd5b81356001600160a01b038116811461056e578182fd5b9392505050565b60006020808385031215610587578182fd5b823567ffffffffffffffff8082111561059e578384fd5b818501915085601f8301126105b1578384fd5b8135818111156105c3576105c3610829565b604051601f8201601f19168101850183811182821017156105e6576105e6610829565b60405281815283820185018810156105fc578586fd5b818585018683013790810190930193909352509392505050565b600060208284031215610627578081fd5b5035919050565b60008151808452815b8181101561065357602081850181015186830182015201610637565b818111156106645782602083870101525b50601f01601f19169290920160200192915050565b6001600160a01b0391909116815260200190565b6001600160a01b03831681526040602082018190526000906106b19083018461062e565b949350505050565b6020808252825182820181905260009190848201906040850190845b818110156106fa5783516001600160a01b0316835292840192918401916001016106d5565b50909695505050505050565b60006020825261056e602083018461062e565b60006040825261072c604083018561062e565b905060018060a01b03831660208301529392505050565b60208082526026908201527f4f776e61626c653a206e6577206f776e657220697320746865207a65726f206160408201526564647265737360d01b606082015260800190565b602080825260169082015275115490cc4c4d8dce8818dc99585d194819985a5b195960521b604082015260600190565b6020808252818101527f4f776e61626c653a2063616c6c6572206973206e6f7420746865206f776e6572604082015260600190565b60028104600182168061080257607f821691505b6020821081141561082357634e487b7160e01b600052602260045260246000fd5b50919050565b634e487b7160e01b600052604160045260246000fdfea264697066735822122009388ae04df9cddc68bdf9f3efa77f13cfc402ba933cd094f77c65a4e0fda5c164736f6c63430008000033",
  "linkReferences": {},
  "deployedLinkReferences": {}
}