{
  "_format": "hh-sol-artifact-1",
  "contractName": "Review",
  "sourceName": "contracts/Review.sol",
  "abi": [
    {
      "anonymous": false,
      "inputs": [
        {
          "indexed": true,
          "internalType": "address",
          "name": "bootcamp",
          "type": "address"
        }
      ],
      "name": "NewBootcamp",
      "type": "event"
    },
    {
      "anonymous": false,
      "inputs": [
        {
          "indexed": true,
          "internalType": "address",
          "name": "course",
          "type": "address"
        },
        {
          "indexed": true,
          "internalType": "address",
          "name": "reviewer",
          "type": "address"
        },
        {
          "indexed": false,
          "internalType": "string",
          "name": "reviewURI",
          "type": "string"
        },
        {
          "indexed": false,
          "internalType": "uint256",
          "name": "rating",
          "type": "uint256"
        }
      ],
      "name": "NewReview",
      "type": "event"
    },
    {
      "anonymous": false,
      "inputs": [
        {
          "indexed": true,
          "internalType": "address",
          "name": "previousOwner",
          "type": "address"
        },
        {
          "indexed": true,
          "internalType": "address",
          "name": "newOwner",
          "type": "address"
        }
      ],
      "name": "OwnershipTransferred",
      "type": "event"
    },
    {
      "inputs": [
        {
          "internalType": "address",
          "name": "bootcamp",
          "type": "address"
        }
      ],
      "name": "addBootcamp",
      "outputs": [],
      "stateMutability": "nonpayable",
      "type": "function"
    },
    {
      "inputs": [
        {
          "internalType": "uint256",
          "name": "",
          "type": "uint256"
        }
      ],
      "name": "bootcamps",
      "outputs": [
        {
          "internalType": "address",
          "name": "",
          "type": "address"
        }
      ],
      "stateMutability": "view",
      "type": "function"
    },
    {
      "inputs": [],
      "name": "owner",
      "outputs": [
        {
          "internalType": "address",
          "name": "",
          "type": "address"
        }
      ],
      "stateMutability": "view",
      "type": "function"
    },
    {
      "inputs": [],
      "name": "renounceOwnership",
      "outputs": [],
      "stateMutability": "nonpayable",
      "type": "function"
    },
    {
      "inputs": [
        {
          "internalType": "address",
          "name": "courseAddress",
          "type": "address"
        },
        {
          "internalType": "string",
          "name": "reviewCID",
          "type": "string"
        },
        {
          "internalType": "uint256",
          "name": "rating",
          "type": "uint256"
        },
        {
          "internalType": "bytes32[]",
          "name": "proof",
          "type": "bytes32[]"
        },
        {
          "internalType": "bytes32",
          "name": "root",
          "type": "bytes32"
        }
      ],
      "name": "reviewCourse",
      "outputs": [],
      "stateMutability": "nonpayable",
      "type": "function"
    },
    {
      "inputs": [
        {
          "internalType": "address",
          "name": "newOwner",
          "type": "address"
        }
      ],
      "name": "transferOwnership",
      "outputs": [],
      "stateMutability": "nonpayable",
      "type": "function"
    }
  ],
  "bytecode": "0x608060405234801561001057600080fd5b5061002161001c610026565b61002a565b61007a565b3390565b600080546001600160a01b038381166001600160a01b0319831681178455604051919092169283917f8be0079c531659141344cd1fd0a4f28419497f9722a3daafe3b4186f6b6457e09190a35050565b61086f806100896000396000f3fe608060405234801561001057600080fd5b50600436106100625760003560e01c806327ffdb3914610067578063715018a61461007c5780638da5cb5b14610084578063c46ce822146100a2578063ed069e2d146100b5578063f2fde38b146100c8575b600080fd5b61007a610075366004610540565b6100db565b005b61007a610203565b61008c61024e565b604051610099919061067f565b60405180910390f35b61007a6100b036600461051f565b61025d565b61008c6100c336600461064f565b6102fa565b61007a6100d636600461051f565b610324565b6000869050806001600160a01b0316631ece87368585336040516020016101029190610667565b60405160208183030381529060405280519060200120866040518563ffffffff1660e01b81526004016101389493929190610693565b60206040518083038186803b15801561015057600080fd5b505afa158015610164573d6000803e3d6000fd5b505050506040513d601f19601f82011682018060405250810190610188919061062f565b6101ad5760405162461bcd60e51b81526004016101a4906107a0565b60405180910390fd5b336001600160a01b0316876001600160a01b03167f757e33a5ddcc5d879446d21a4002966e610c0934ecaab60ca8be305ee60b25a388886040516101f29291906106d7565b60405180910390a350505050505050565b61020b610395565b6001600160a01b031661021c61024e565b6001600160a01b0316146102425760405162461bcd60e51b81526004016101a4906107c7565b61024c6000610399565b565b6000546001600160a01b031690565b610266816103e9565b156102835760405162461bcd60e51b81526004016101a490610778565b60018054808201825560009182527fb10e2d527612073b26eecdfd717e6a320cf44b4afac2b0732d9fcbe2b7fa0cf60180546001600160a01b0319166001600160a01b03841690811790915560405190917f065535da9de09efc7f0d036c8bce30752f9193e378a428983718d7519983dd1291a250565b6001818154811061030a57600080fd5b6000918252602090912001546001600160a01b0316905081565b61032c610395565b6001600160a01b031661033d61024e565b6001600160a01b0316146103635760405162461bcd60e51b81526004016101a4906107c7565b6001600160a01b0381166103895760405162461bcd60e51b81526004016101a490610732565b61039281610399565b50565b3390565b600080546001600160a01b038381166001600160a01b0319831681178455604051919092169283917f8be0079c531659141344cd1fd0a4f28419497f9722a3daafe3b4186f6b6457e09190a35050565b600080600180548060200260200160405190810160405280929190818152602001828054801561044257602002820191906000526020600020905b81546001600160a01b03168152600190910190602001808311610424575b5050505050905060005b81518110156104b357836001600160a01b031682828151811061047f57634e487b7160e01b600052603260045260246000fd5b60200260200101516001600160a01b031614156104a1576001925050506104ba565b806104ab816107fc565b91505061044c565b5060009150505b919050565b80356001600160a01b03811681146104ba57600080fd5b60008083601f8401126104e7578081fd5b50813567ffffffffffffffff8111156104fe578182fd5b602083019150836020808302850101111561051857600080fd5b9250929050565b600060208284031215610530578081fd5b610539826104bf565b9392505050565b60008060008060008060a08789031215610558578182fd5b610561876104bf565b955060208088013567ffffffffffffffff8082111561057e578485fd5b818a0191508a601f830112610591578485fd5b8135818111156105a3576105a3610823565b604051601f8201601f19168101850183811182821017156105c6576105c6610823565b60405281815283820185018d10156105dc578687fd5b81858501868301379081019093018590529196506040890135955060608901359180831115610609578485fd5b505061061789828a016104d6565b979a9699509497949695608090950135949350505050565b600060208284031215610640578081fd5b81518015158114610539578182fd5b600060208284031215610660578081fd5b5035919050565b60609190911b6001600160601b031916815260140190565b6001600160a01b0391909116815260200190565b6060808252810184905260006001600160fb1b038511156106b2578081fd5b6020850280876080850137820160800190815260208201939093526040015292915050565b6000604082528351806040840152815b8181101561070457602081870181015160608684010152016106e7565b818111156107155782606083860101525b50602083019390935250601f91909101601f191601606001919050565b60208082526026908201527f4f776e61626c653a206e6577206f776e657220697320746865207a65726f206160408201526564647265737360d01b606082015260800190565b6020808252600e908201526d416c72656164792045786973747360901b604082015260600190565b6020808252600d908201526c1b9bdd0818d95c9d1a599a5959609a1b604082015260600190565b6020808252818101527f4f776e61626c653a2063616c6c6572206973206e6f7420746865206f776e6572604082015260600190565b600060001982141561081c57634e487b7160e01b81526011600452602481fd5b5060010190565b634e487b7160e01b600052604160045260246000fdfea2646970667358221220cf01b8280ce7c645ce7c45f4dfce6637bf34146117598989eda8485d84c3ba4664736f6c63430008000033",
  "linkReferences": {},
  "deployedLinkReferences": {}
}